{
	"BT/Bank/bank.sol": {
		"Bank": {
			"abi": [
				{
					"inputs": [],
					"name": "create_account",
					"outputs": [
						{
							"internalType": "string",
							"name": "",
							"type": "string"
						}
					],
					"stateMutability": "payable",
					"type": "function"
				},
				{
					"inputs": [
						{
							"internalType": "uint256",
							"name": "amount",
							"type": "uint256"
						}
					],
					"name": "deposit",
					"outputs": [
						{
							"internalType": "string",
							"name": "",
							"type": "string"
						}
					],
					"stateMutability": "payable",
					"type": "function"
				},
				{
					"inputs": [],
					"name": "show_balance",
					"outputs": [
						{
							"internalType": "uint256",
							"name": "",
							"type": "uint256"
						}
					],
					"stateMutability": "view",
					"type": "function"
				},
				{
					"inputs": [
						{
							"internalType": "uint256",
							"name": "amount",
							"type": "uint256"
						}
					],
					"name": "withdraw",
					"outputs": [
						{
							"internalType": "string",
							"name": "",
							"type": "string"
						}
					],
					"stateMutability": "payable",
					"type": "function"
				}
			],
			"devdoc": {
				"kind": "dev",
				"methods": {},
				"version": 1
			},
			"evm": {
				"assembly": "    /* \"BT/Bank/bank.sol\":70:1770  contract Bank... */\n  mstore(0x40, 0x80)\n  callvalue\n  dup1\n  iszero\n  tag_1\n  jumpi\n  0x00\n  dup1\n  revert\ntag_1:\n  pop\n  dataSize(sub_0)\n  dup1\n  dataOffset(sub_0)\n  0x00\n  codecopy\n  0x00\n  return\nstop\n\nsub_0: assembly {\n        /* \"BT/Bank/bank.sol\":70:1770  contract Bank... */\n      mstore(0x40, 0x80)\n      jumpi(tag_1, lt(calldatasize, 0x04))\n      shr(0xe0, calldataload(0x00))\n      dup1\n      0x2e1a7d4d\n      eq\n      tag_2\n      jumpi\n      dup1\n      0x509f8633\n      eq\n      tag_3\n      jumpi\n      dup1\n      0x946d0149\n      eq\n      tag_4\n      jumpi\n      dup1\n      0xb6b55f25\n      eq\n      tag_5\n      jumpi\n    tag_1:\n      0x00\n      dup1\n      revert\n        /* \"BT/Bank/bank.sol\":1114:1654  function withdraw(uint amount)public payable returns(string memory)... */\n    tag_2:\n      tag_6\n      0x04\n      dup1\n      calldatasize\n      sub\n      dup2\n      add\n      swap1\n      tag_7\n      swap2\n      swap1\n      tag_8\n      jump\t// in\n    tag_7:\n      tag_9\n      jump\t// in\n    tag_6:\n      mload(0x40)\n      tag_10\n      swap2\n      swap1\n      tag_11\n      jump\t// in\n    tag_10:\n      mload(0x40)\n      dup1\n      swap2\n      sub\n      swap1\n      return\n        /* \"BT/Bank/bank.sol\":307:685  function create_account() public payable returns(string memory)... */\n    tag_3:\n      tag_12\n      tag_13\n      jump\t// in\n    tag_12:\n      mload(0x40)\n      tag_14\n      swap2\n      swap1\n      tag_11\n      jump\t// in\n    tag_14:\n      mload(0x40)\n      dup1\n      swap2\n      sub\n      swap1\n      return\n        /* \"BT/Bank/bank.sol\":1662:1767  function show_balance() public view returns(uint)... */\n    tag_4:\n      callvalue\n      dup1\n      iszero\n      tag_15\n      jumpi\n      0x00\n      dup1\n      revert\n    tag_15:\n      pop\n      tag_16\n      tag_17\n      jump\t// in\n    tag_16:\n      mload(0x40)\n      tag_18\n      swap2\n      swap1\n      tag_19\n      jump\t// in\n    tag_18:\n      mload(0x40)\n      dup1\n      swap2\n      sub\n      swap1\n      return\n        /* \"BT/Bank/bank.sol\":693:1106  function deposit(uint amount) public payable returns(string memory)... */\n    tag_5:\n      tag_20\n      0x04\n      dup1\n      calldatasize\n      sub\n      dup2\n      add\n      swap1\n      tag_21\n      swap2\n      swap1\n      tag_8\n      jump\t// in\n    tag_21:\n      tag_22\n      jump\t// in\n    tag_20:\n      mload(0x40)\n      tag_23\n      swap2\n      swap1\n      tag_11\n      jump\t// in\n    tag_23:\n      mload(0x40)\n      dup1\n      swap2\n      sub\n      swap1\n      return\n        /* \"BT/Bank/bank.sol\":1114:1654  function withdraw(uint amount)public payable returns(string memory)... */\n    tag_9:\n        /* \"BT/Bank/bank.sol\":1167:1180  string memory */\n      0x60\n        /* \"BT/Bank/bank.sol\":1267:1271  true */\n      0x01\n        /* \"BT/Bank/bank.sol\":1242:1271  user_exists[msg.sender]==true */\n      iszero\n      iszero\n        /* \"BT/Bank/bank.sol\":1242:1253  user_exists */\n      0x01\n        /* \"BT/Bank/bank.sol\":1242:1265  user_exists[msg.sender] */\n      0x00\n        /* \"BT/Bank/bank.sol\":1254:1264  msg.sender */\n      caller\n        /* \"BT/Bank/bank.sol\":1242:1265  user_exists[msg.sender] */\n      0xffffffffffffffffffffffffffffffffffffffff\n      and\n      0xffffffffffffffffffffffffffffffffffffffff\n      and\n      dup2\n      mstore\n      0x20\n      add\n      swap1\n      dup2\n      mstore\n      0x20\n      add\n      0x00\n      keccak256\n      0x00\n      swap1\n      sload\n      swap1\n      0x0100\n      exp\n      swap1\n      div\n      0xff\n      and\n        /* \"BT/Bank/bank.sol\":1242:1271  user_exists[msg.sender]==true */\n      iszero\n      iszero\n      eq\n        /* \"BT/Bank/bank.sol\":1234:1297  require(user_exists[msg.sender]==true,\"Accout Does not Exist!\") */\n      tag_25\n      jumpi\n      mload(0x40)\n      0x08c379a000000000000000000000000000000000000000000000000000000000\n      dup2\n      mstore\n      0x04\n      add\n      tag_26\n      swap1\n      tag_27\n      jump\t// in\n    tag_26:\n      mload(0x40)\n      dup1\n      swap2\n      sub\n      swap1\n      revert\n    tag_25:\n        /* \"BT/Bank/bank.sol\":1377:1378  0 */\n      0x00\n        /* \"BT/Bank/bank.sol\":1370:1376  amount */\n      dup3\n        /* \"BT/Bank/bank.sol\":1370:1378  amount>0 */\n      gt\n        /* \"BT/Bank/bank.sol\":1362:1423  require(amount>0,\"Amount to be Withdrawn cannot be Negative\") */\n      tag_28\n      jumpi\n      mload(0x40)\n      0x08c379a000000000000000000000000000000000000000000000000000000000\n      dup2\n      mstore\n      0x04\n      add\n      tag_29\n      swap1\n      tag_30\n      jump\t// in\n    tag_29:\n      mload(0x40)\n      dup1\n      swap2\n      sub\n      swap1\n      revert\n    tag_28:\n        /* \"BT/Bank/bank.sol\":1504:1516  user_account */\n      0x00\n        /* \"BT/Bank/bank.sol\":1504:1528  user_account[msg.sender] */\n      dup1\n        /* \"BT/Bank/bank.sol\":1517:1527  msg.sender */\n      caller\n        /* \"BT/Bank/bank.sol\":1504:1528  user_account[msg.sender] */\n      0xffffffffffffffffffffffffffffffffffffffff\n      and\n      0xffffffffffffffffffffffffffffffffffffffff\n      and\n      dup2\n      mstore\n      0x20\n      add\n      swap1\n      dup2\n      mstore\n      0x20\n      add\n      0x00\n      keccak256\n      sload\n        /* \"BT/Bank/bank.sol\":1496:1502  amount */\n      dup3\n        /* \"BT/Bank/bank.sol\":1496:1528  amount<=user_account[msg.sender] */\n      gt\n      iszero\n        /* \"BT/Bank/bank.sol\":1488:1553  require(amount<=user_account[msg.sender],\"Insufficient Balance!\") */\n      tag_31\n      jumpi\n      mload(0x40)\n      0x08c379a000000000000000000000000000000000000000000000000000000000\n      dup2\n      mstore\n      0x04\n      add\n      tag_32\n      swap1\n      tag_33\n      jump\t// in\n    tag_32:\n      mload(0x40)\n      dup1\n      swap2\n      sub\n      swap1\n      revert\n    tag_31:\n        /* \"BT/Bank/bank.sol\":1590:1596  amount */\n      dup2\n        /* \"BT/Bank/bank.sol\":1564:1576  user_account */\n      0x00\n        /* \"BT/Bank/bank.sol\":1564:1588  user_account[msg.sender] */\n      dup1\n        /* \"BT/Bank/bank.sol\":1577:1587  msg.sender */\n      caller\n        /* \"BT/Bank/bank.sol\":1564:1588  user_account[msg.sender] */\n      0xffffffffffffffffffffffffffffffffffffffff\n      and\n      0xffffffffffffffffffffffffffffffffffffffff\n      and\n      dup2\n      mstore\n      0x20\n      add\n      swap1\n      dup2\n      mstore\n      0x20\n      add\n      0x00\n      keccak256\n      0x00\n        /* \"BT/Bank/bank.sol\":1564:1596  user_account[msg.sender]-=amount */\n      dup3\n      dup3\n      sload\n      tag_34\n      swap2\n      swap1\n      tag_35\n      jump\t// in\n    tag_34:\n      swap3\n      pop\n      pop\n      dup2\n      swap1\n      sstore\n      pop\n        /* \"BT/Bank/bank.sol\":1607:1646  return(\"Amount Deposited Successfully\") */\n      mload(0x40)\n      dup1\n      0x40\n      add\n      0x40\n      mstore\n      dup1\n      0x1d\n      dup2\n      mstore\n      0x20\n      add\n      0x416d6f756e74204465706f7369746564205375636365737366756c6c79000000\n      dup2\n      mstore\n      pop\n      swap1\n      pop\n        /* \"BT/Bank/bank.sol\":1114:1654  function withdraw(uint amount)public payable returns(string memory)... */\n      swap2\n      swap1\n      pop\n      jump\t// out\n        /* \"BT/Bank/bank.sol\":307:685  function create_account() public payable returns(string memory)... */\n    tag_13:\n        /* \"BT/Bank/bank.sol\":356:369  string memory */\n      0x60\n        /* \"BT/Bank/bank.sol\":468:473  false */\n      0x00\n        /* \"BT/Bank/bank.sol\":443:473  user_exists[msg.sender]==false */\n      iszero\n      iszero\n        /* \"BT/Bank/bank.sol\":443:454  user_exists */\n      0x01\n        /* \"BT/Bank/bank.sol\":443:466  user_exists[msg.sender] */\n      0x00\n        /* \"BT/Bank/bank.sol\":455:465  msg.sender */\n      caller\n        /* \"BT/Bank/bank.sol\":443:466  user_exists[msg.sender] */\n      0xffffffffffffffffffffffffffffffffffffffff\n      and\n      0xffffffffffffffffffffffffffffffffffffffff\n      and\n      dup2\n      mstore\n      0x20\n      add\n      swap1\n      dup2\n      mstore\n      0x20\n      add\n      0x00\n      keccak256\n      0x00\n      swap1\n      sload\n      swap1\n      0x0100\n      exp\n      swap1\n      div\n      0xff\n      and\n        /* \"BT/Bank/bank.sol\":443:473  user_exists[msg.sender]==false */\n      iszero\n      iszero\n      eq\n        /* \"BT/Bank/bank.sol\":435:502  require(user_exists[msg.sender]==false,\"Account already exists ! \") */\n      tag_37\n      jumpi\n      mload(0x40)\n      0x08c379a000000000000000000000000000000000000000000000000000000000\n      dup2\n      mstore\n      0x04\n      add\n      tag_38\n      swap1\n      tag_39\n      jump\t// in\n    tag_38:\n      mload(0x40)\n      dup1\n      swap2\n      sub\n      swap1\n      revert\n    tag_37:\n        /* \"BT/Bank/bank.sol\":538:547  msg.value */\n      callvalue\n        /* \"BT/Bank/bank.sol\":513:525  user_account */\n      0x00\n        /* \"BT/Bank/bank.sol\":513:537  user_account[msg.sender] */\n      dup1\n        /* \"BT/Bank/bank.sol\":526:536  msg.sender */\n      caller\n        /* \"BT/Bank/bank.sol\":513:537  user_account[msg.sender] */\n      0xffffffffffffffffffffffffffffffffffffffff\n      and\n      0xffffffffffffffffffffffffffffffffffffffff\n      and\n      dup2\n      mstore\n      0x20\n      add\n      swap1\n      dup2\n      mstore\n      0x20\n      add\n      0x00\n      keccak256\n        /* \"BT/Bank/bank.sol\":513:547  user_account[msg.sender]=msg.value */\n      dup2\n      swap1\n      sstore\n      pop\n        /* \"BT/Bank/bank.sol\":600:604  true */\n      0x01\n        /* \"BT/Bank/bank.sol\":576:587  user_exists */\n      dup1\n        /* \"BT/Bank/bank.sol\":576:599  user_exists[msg.sender] */\n      0x00\n        /* \"BT/Bank/bank.sol\":588:598  msg.sender */\n      caller\n        /* \"BT/Bank/bank.sol\":576:599  user_exists[msg.sender] */\n      0xffffffffffffffffffffffffffffffffffffffff\n      and\n      0xffffffffffffffffffffffffffffffffffffffff\n      and\n      dup2\n      mstore\n      0x20\n      add\n      swap1\n      dup2\n      mstore\n      0x20\n      add\n      0x00\n      keccak256\n      0x00\n        /* \"BT/Bank/bank.sol\":576:604  user_exists[msg.sender]=true */\n      0x0100\n      exp\n      dup2\n      sload\n      dup2\n      0xff\n      mul\n      not\n      and\n      swap1\n      dup4\n      iszero\n      iszero\n      mul\n      or\n      swap1\n      sstore\n      pop\n        /* \"BT/Bank/bank.sol\":640:677  return \"Account Creation Successful!\" */\n      mload(0x40)\n      dup1\n      0x40\n      add\n      0x40\n      mstore\n      dup1\n      0x1c\n      dup2\n      mstore\n      0x20\n      add\n      0x4163636f756e74204372656174696f6e205375636365737366756c2100000000\n      dup2\n      mstore\n      pop\n      swap1\n      pop\n        /* \"BT/Bank/bank.sol\":307:685  function create_account() public payable returns(string memory)... */\n      swap1\n      jump\t// out\n        /* \"BT/Bank/bank.sol\":1662:1767  function show_balance() public view returns(uint)... */\n    tag_17:\n        /* \"BT/Bank/bank.sol\":1706:1710  uint */\n      0x00\n        /* \"BT/Bank/bank.sol\":1735:1747  user_account */\n      dup1\n        /* \"BT/Bank/bank.sol\":1735:1759  user_account[msg.sender] */\n      0x00\n        /* \"BT/Bank/bank.sol\":1748:1758  msg.sender */\n      caller\n        /* \"BT/Bank/bank.sol\":1735:1759  user_account[msg.sender] */\n      0xffffffffffffffffffffffffffffffffffffffff\n      and\n      0xffffffffffffffffffffffffffffffffffffffff\n      and\n      dup2\n      mstore\n      0x20\n      add\n      swap1\n      dup2\n      mstore\n      0x20\n      add\n      0x00\n      keccak256\n      sload\n        /* \"BT/Bank/bank.sol\":1728:1759  return user_account[msg.sender] */\n      swap1\n      pop\n        /* \"BT/Bank/bank.sol\":1662:1767  function show_balance() public view returns(uint)... */\n      swap1\n      jump\t// out\n        /* \"BT/Bank/bank.sol\":693:1106  function deposit(uint amount) public payable returns(string memory)... */\n    tag_22:\n        /* \"BT/Bank/bank.sol\":746:759  string memory */\n      0x60\n        /* \"BT/Bank/bank.sol\":846:850  true */\n      0x01\n        /* \"BT/Bank/bank.sol\":821:850  user_exists[msg.sender]==true */\n      iszero\n      iszero\n        /* \"BT/Bank/bank.sol\":821:832  user_exists */\n      0x01\n        /* \"BT/Bank/bank.sol\":821:844  user_exists[msg.sender] */\n      0x00\n        /* \"BT/Bank/bank.sol\":833:843  msg.sender */\n      caller\n        /* \"BT/Bank/bank.sol\":821:844  user_exists[msg.sender] */\n      0xffffffffffffffffffffffffffffffffffffffff\n      and\n      0xffffffffffffffffffffffffffffffffffffffff\n      and\n      dup2\n      mstore\n      0x20\n      add\n      swap1\n      dup2\n      mstore\n      0x20\n      add\n      0x00\n      keccak256\n      0x00\n      swap1\n      sload\n      swap1\n      0x0100\n      exp\n      swap1\n      div\n      0xff\n      and\n        /* \"BT/Bank/bank.sol\":821:850  user_exists[msg.sender]==true */\n      iszero\n      iszero\n      eq\n        /* \"BT/Bank/bank.sol\":813:878  require(user_exists[msg.sender]==true, \"Account Does not Exist!\") */\n      tag_42\n      jumpi\n      mload(0x40)\n      0x08c379a000000000000000000000000000000000000000000000000000000000\n      dup2\n      mstore\n      0x04\n      add\n      tag_43\n      swap1\n      tag_44\n      jump\t// in\n    tag_43:\n      mload(0x40)\n      dup1\n      swap2\n      sub\n      swap1\n      revert\n    tag_42:\n        /* \"BT/Bank/bank.sol\":958:959  0 */\n      0x00\n        /* \"BT/Bank/bank.sol\":951:957  amount */\n      dup3\n        /* \"BT/Bank/bank.sol\":951:959  amount>0 */\n      gt\n        /* \"BT/Bank/bank.sol\":943:1005  require(amount>0, \"Amount to be Deposited Cannot be Negative\") */\n      tag_45\n      jumpi\n      mload(0x40)\n      0x08c379a000000000000000000000000000000000000000000000000000000000\n      dup2\n      mstore\n      0x04\n      add\n      tag_46\n      swap1\n      tag_47\n      jump\t// in\n    tag_46:\n      mload(0x40)\n      dup1\n      swap2\n      sub\n      swap1\n      revert\n    tag_45:\n        /* \"BT/Bank/bank.sol\":1042:1048  amount */\n      dup2\n        /* \"BT/Bank/bank.sol\":1016:1028  user_account */\n      0x00\n        /* \"BT/Bank/bank.sol\":1016:1040  user_account[msg.sender] */\n      dup1\n        /* \"BT/Bank/bank.sol\":1029:1039  msg.sender */\n      caller\n        /* \"BT/Bank/bank.sol\":1016:1040  user_account[msg.sender] */\n      0xffffffffffffffffffffffffffffffffffffffff\n      and\n      0xffffffffffffffffffffffffffffffffffffffff\n      and\n      dup2\n      mstore\n      0x20\n      add\n      swap1\n      dup2\n      mstore\n      0x20\n      add\n      0x00\n      keccak256\n      0x00\n        /* \"BT/Bank/bank.sol\":1016:1048  user_account[msg.sender]+=amount */\n      dup3\n      dup3\n      sload\n      tag_48\n      swap2\n      swap1\n      tag_49\n      jump\t// in\n    tag_48:\n      swap3\n      pop\n      pop\n      dup2\n      swap1\n      sstore\n      pop\n        /* \"BT/Bank/bank.sol\":1059:1098  return(\"Amount Deposited Successfully\") */\n      mload(0x40)\n      dup1\n      0x40\n      add\n      0x40\n      mstore\n      dup1\n      0x1d\n      dup2\n      mstore\n      0x20\n      add\n      0x416d6f756e74204465706f7369746564205375636365737366756c6c79000000\n      dup2\n      mstore\n      pop\n      swap1\n      pop\n        /* \"BT/Bank/bank.sol\":693:1106  function deposit(uint amount) public payable returns(string memory)... */\n      swap2\n      swap1\n      pop\n      jump\t// out\n        /* \"#utility.yul\":88:205   */\n    tag_51:\n        /* \"#utility.yul\":197:198   */\n      0x00\n        /* \"#utility.yul\":194:195   */\n      dup1\n        /* \"#utility.yul\":187:199   */\n      revert\n        /* \"#utility.yul\":334:411   */\n    tag_53:\n        /* \"#utility.yul\":371:378   */\n      0x00\n        /* \"#utility.yul\":400:405   */\n      dup2\n        /* \"#utility.yul\":389:405   */\n      swap1\n      pop\n        /* \"#utility.yul\":334:411   */\n      swap2\n      swap1\n      pop\n      jump\t// out\n        /* \"#utility.yul\":417:539   */\n    tag_54:\n        /* \"#utility.yul\":490:514   */\n      tag_81\n        /* \"#utility.yul\":508:513   */\n      dup2\n        /* \"#utility.yul\":490:514   */\n      tag_53\n      jump\t// in\n    tag_81:\n        /* \"#utility.yul\":483:488   */\n      dup2\n        /* \"#utility.yul\":480:515   */\n      eq\n        /* \"#utility.yul\":470:533   */\n      tag_82\n      jumpi\n        /* \"#utility.yul\":529:530   */\n      0x00\n        /* \"#utility.yul\":526:527   */\n      dup1\n        /* \"#utility.yul\":519:531   */\n      revert\n        /* \"#utility.yul\":470:533   */\n    tag_82:\n        /* \"#utility.yul\":417:539   */\n      pop\n      jump\t// out\n        /* \"#utility.yul\":545:684   */\n    tag_55:\n        /* \"#utility.yul\":591:596   */\n      0x00\n        /* \"#utility.yul\":629:635   */\n      dup2\n        /* \"#utility.yul\":616:636   */\n      calldataload\n        /* \"#utility.yul\":607:636   */\n      swap1\n      pop\n        /* \"#utility.yul\":645:678   */\n      tag_84\n        /* \"#utility.yul\":672:677   */\n      dup2\n        /* \"#utility.yul\":645:678   */\n      tag_54\n      jump\t// in\n    tag_84:\n        /* \"#utility.yul\":545:684   */\n      swap3\n      swap2\n      pop\n      pop\n      jump\t// out\n        /* \"#utility.yul\":690:1019   */\n    tag_8:\n        /* \"#utility.yul\":749:755   */\n      0x00\n        /* \"#utility.yul\":798:800   */\n      0x20\n        /* \"#utility.yul\":786:795   */\n      dup3\n        /* \"#utility.yul\":777:784   */\n      dup5\n        /* \"#utility.yul\":773:796   */\n      sub\n        /* \"#utility.yul\":769:801   */\n      slt\n        /* \"#utility.yul\":766:885   */\n      iszero\n      tag_86\n      jumpi\n        /* \"#utility.yul\":804:883   */\n      tag_87\n      tag_51\n      jump\t// in\n    tag_87:\n        /* \"#utility.yul\":766:885   */\n    tag_86:\n        /* \"#utility.yul\":924:925   */\n      0x00\n        /* \"#utility.yul\":949:1002   */\n      tag_88\n        /* \"#utility.yul\":994:1001   */\n      dup5\n        /* \"#utility.yul\":985:991   */\n      dup3\n        /* \"#utility.yul\":974:983   */\n      dup6\n        /* \"#utility.yul\":970:992   */\n      add\n        /* \"#utility.yul\":949:1002   */\n      tag_55\n      jump\t// in\n    tag_88:\n        /* \"#utility.yul\":939:1002   */\n      swap2\n      pop\n        /* \"#utility.yul\":895:1012   */\n      pop\n        /* \"#utility.yul\":690:1019   */\n      swap3\n      swap2\n      pop\n      pop\n      jump\t// out\n        /* \"#utility.yul\":1025:1124   */\n    tag_56:\n        /* \"#utility.yul\":1077:1083   */\n      0x00\n        /* \"#utility.yul\":1111:1116   */\n      dup2\n        /* \"#utility.yul\":1105:1117   */\n      mload\n        /* \"#utility.yul\":1095:1117   */\n      swap1\n      pop\n        /* \"#utility.yul\":1025:1124   */\n      swap2\n      swap1\n      pop\n      jump\t// out\n        /* \"#utility.yul\":1130:1299   */\n    tag_57:\n        /* \"#utility.yul\":1214:1225   */\n      0x00\n        /* \"#utility.yul\":1248:1254   */\n      dup3\n        /* \"#utility.yul\":1243:1246   */\n      dup3\n        /* \"#utility.yul\":1236:1255   */\n      mstore\n        /* \"#utility.yul\":1288:1292   */\n      0x20\n        /* \"#utility.yul\":1283:1286   */\n      dup3\n        /* \"#utility.yul\":1279:1293   */\n      add\n        /* \"#utility.yul\":1264:1293   */\n      swap1\n      pop\n        /* \"#utility.yul\":1130:1299   */\n      swap3\n      swap2\n      pop\n      pop\n      jump\t// out\n        /* \"#utility.yul\":1305:1551   */\n    tag_58:\n        /* \"#utility.yul\":1386:1387   */\n      0x00\n        /* \"#utility.yul\":1396:1509   */\n    tag_92:\n        /* \"#utility.yul\":1410:1416   */\n      dup4\n        /* \"#utility.yul\":1407:1408   */\n      dup2\n        /* \"#utility.yul\":1404:1417   */\n      lt\n        /* \"#utility.yul\":1396:1509   */\n      iszero\n      tag_94\n      jumpi\n        /* \"#utility.yul\":1495:1496   */\n      dup1\n        /* \"#utility.yul\":1490:1493   */\n      dup3\n        /* \"#utility.yul\":1486:1497   */\n      add\n        /* \"#utility.yul\":1480:1498   */\n      mload\n        /* \"#utility.yul\":1476:1477   */\n      dup2\n        /* \"#utility.yul\":1471:1474   */\n      dup5\n        /* \"#utility.yul\":1467:1478   */\n      add\n        /* \"#utility.yul\":1460:1499   */\n      mstore\n        /* \"#utility.yul\":1432:1434   */\n      0x20\n        /* \"#utility.yul\":1429:1430   */\n      dup2\n        /* \"#utility.yul\":1425:1435   */\n      add\n        /* \"#utility.yul\":1420:1435   */\n      swap1\n      pop\n        /* \"#utility.yul\":1396:1509   */\n      jump(tag_92)\n    tag_94:\n        /* \"#utility.yul\":1543:1544   */\n      0x00\n        /* \"#utility.yul\":1534:1540   */\n      dup5\n        /* \"#utility.yul\":1529:1532   */\n      dup5\n        /* \"#utility.yul\":1525:1541   */\n      add\n        /* \"#utility.yul\":1518:1545   */\n      mstore\n        /* \"#utility.yul\":1367:1551   */\n      pop\n        /* \"#utility.yul\":1305:1551   */\n      pop\n      pop\n      pop\n      jump\t// out\n        /* \"#utility.yul\":1557:1659   */\n    tag_59:\n        /* \"#utility.yul\":1598:1604   */\n      0x00\n        /* \"#utility.yul\":1649:1651   */\n      0x1f\n        /* \"#utility.yul\":1645:1652   */\n      not\n        /* \"#utility.yul\":1640:1642   */\n      0x1f\n        /* \"#utility.yul\":1633:1638   */\n      dup4\n        /* \"#utility.yul\":1629:1643   */\n      add\n        /* \"#utility.yul\":1625:1653   */\n      and\n        /* \"#utility.yul\":1615:1653   */\n      swap1\n      pop\n        /* \"#utility.yul\":1557:1659   */\n      swap2\n      swap1\n      pop\n      jump\t// out\n        /* \"#utility.yul\":1665:2042   */\n    tag_60:\n        /* \"#utility.yul\":1753:1756   */\n      0x00\n        /* \"#utility.yul\":1781:1820   */\n      tag_97\n        /* \"#utility.yul\":1814:1819   */\n      dup3\n        /* \"#utility.yul\":1781:1820   */\n      tag_56\n      jump\t// in\n    tag_97:\n        /* \"#utility.yul\":1836:1907   */\n      tag_98\n        /* \"#utility.yul\":1900:1906   */\n      dup2\n        /* \"#utility.yul\":1895:1898   */\n      dup6\n        /* \"#utility.yul\":1836:1907   */\n      tag_57\n      jump\t// in\n    tag_98:\n        /* \"#utility.yul\":1829:1907   */\n      swap4\n      pop\n        /* \"#utility.yul\":1916:1981   */\n      tag_99\n        /* \"#utility.yul\":1974:1980   */\n      dup2\n        /* \"#utility.yul\":1969:1972   */\n      dup6\n        /* \"#utility.yul\":1962:1966   */\n      0x20\n        /* \"#utility.yul\":1955:1960   */\n      dup7\n        /* \"#utility.yul\":1951:1967   */\n      add\n        /* \"#utility.yul\":1916:1981   */\n      tag_58\n      jump\t// in\n    tag_99:\n        /* \"#utility.yul\":2006:2035   */\n      tag_100\n        /* \"#utility.yul\":2028:2034   */\n      dup2\n        /* \"#utility.yul\":2006:2035   */\n      tag_59\n      jump\t// in\n    tag_100:\n        /* \"#utility.yul\":2001:2004   */\n      dup5\n        /* \"#utility.yul\":1997:2036   */\n      add\n        /* \"#utility.yul\":1990:2036   */\n      swap2\n      pop\n        /* \"#utility.yul\":1757:2042   */\n      pop\n        /* \"#utility.yul\":1665:2042   */\n      swap3\n      swap2\n      pop\n      pop\n      jump\t// out\n        /* \"#utility.yul\":2048:2361   */\n    tag_11:\n        /* \"#utility.yul\":2161:2165   */\n      0x00\n        /* \"#utility.yul\":2199:2201   */\n      0x20\n        /* \"#utility.yul\":2188:2197   */\n      dup3\n        /* \"#utility.yul\":2184:2202   */\n      add\n        /* \"#utility.yul\":2176:2202   */\n      swap1\n      pop\n        /* \"#utility.yul\":2248:2257   */\n      dup2\n        /* \"#utility.yul\":2242:2246   */\n      dup2\n        /* \"#utility.yul\":2238:2258   */\n      sub\n        /* \"#utility.yul\":2234:2235   */\n      0x00\n        /* \"#utility.yul\":2223:2232   */\n      dup4\n        /* \"#utility.yul\":2219:2236   */\n      add\n        /* \"#utility.yul\":2212:2259   */\n      mstore\n        /* \"#utility.yul\":2276:2354   */\n      tag_102\n        /* \"#utility.yul\":2349:2353   */\n      dup2\n        /* \"#utility.yul\":2340:2346   */\n      dup5\n        /* \"#utility.yul\":2276:2354   */\n      tag_60\n      jump\t// in\n    tag_102:\n        /* \"#utility.yul\":2268:2354   */\n      swap1\n      pop\n        /* \"#utility.yul\":2048:2361   */\n      swap3\n      swap2\n      pop\n      pop\n      jump\t// out\n        /* \"#utility.yul\":2367:2485   */\n    tag_61:\n        /* \"#utility.yul\":2454:2478   */\n      tag_104\n        /* \"#utility.yul\":2472:2477   */\n      dup2\n        /* \"#utility.yul\":2454:2478   */\n      tag_53\n      jump\t// in\n    tag_104:\n        /* \"#utility.yul\":2449:2452   */\n      dup3\n        /* \"#utility.yul\":2442:2479   */\n      mstore\n        /* \"#utility.yul\":2367:2485   */\n      pop\n      pop\n      jump\t// out\n        /* \"#utility.yul\":2491:2713   */\n    tag_19:\n        /* \"#utility.yul\":2584:2588   */\n      0x00\n        /* \"#utility.yul\":2622:2624   */\n      0x20\n        /* \"#utility.yul\":2611:2620   */\n      dup3\n        /* \"#utility.yul\":2607:2625   */\n      add\n        /* \"#utility.yul\":2599:2625   */\n      swap1\n      pop\n        /* \"#utility.yul\":2635:2706   */\n      tag_106\n        /* \"#utility.yul\":2703:2704   */\n      0x00\n        /* \"#utility.yul\":2692:2701   */\n      dup4\n        /* \"#utility.yul\":2688:2705   */\n      add\n        /* \"#utility.yul\":2679:2685   */\n      dup5\n        /* \"#utility.yul\":2635:2706   */\n      tag_61\n      jump\t// in\n    tag_106:\n        /* \"#utility.yul\":2491:2713   */\n      swap3\n      swap2\n      pop\n      pop\n      jump\t// out\n        /* \"#utility.yul\":2719:2891   */\n    tag_62:\n        /* \"#utility.yul\":2859:2883   */\n      0x4163636f757420446f6573206e6f742045786973742100000000000000000000\n        /* \"#utility.yul\":2855:2856   */\n      0x00\n        /* \"#utility.yul\":2847:2853   */\n      dup3\n        /* \"#utility.yul\":2843:2857   */\n      add\n        /* \"#utility.yul\":2836:2884   */\n      mstore\n        /* \"#utility.yul\":2719:2891   */\n      pop\n      jump\t// out\n        /* \"#utility.yul\":2897:3263   */\n    tag_63:\n        /* \"#utility.yul\":3039:3042   */\n      0x00\n        /* \"#utility.yul\":3060:3127   */\n      tag_109\n        /* \"#utility.yul\":3124:3126   */\n      0x16\n        /* \"#utility.yul\":3119:3122   */\n      dup4\n        /* \"#utility.yul\":3060:3127   */\n      tag_57\n      jump\t// in\n    tag_109:\n        /* \"#utility.yul\":3053:3127   */\n      swap2\n      pop\n        /* \"#utility.yul\":3136:3229   */\n      tag_110\n        /* \"#utility.yul\":3225:3228   */\n      dup3\n        /* \"#utility.yul\":3136:3229   */\n      tag_62\n      jump\t// in\n    tag_110:\n        /* \"#utility.yul\":3254:3256   */\n      0x20\n        /* \"#utility.yul\":3249:3252   */\n      dup3\n        /* \"#utility.yul\":3245:3257   */\n      add\n        /* \"#utility.yul\":3238:3257   */\n      swap1\n      pop\n        /* \"#utility.yul\":2897:3263   */\n      swap2\n      swap1\n      pop\n      jump\t// out\n        /* \"#utility.yul\":3269:3688   */\n    tag_27:\n        /* \"#utility.yul\":3435:3439   */\n      0x00\n        /* \"#utility.yul\":3473:3475   */\n      0x20\n        /* \"#utility.yul\":3462:3471   */\n      dup3\n        /* \"#utility.yul\":3458:3476   */\n      add\n        /* \"#utility.yul\":3450:3476   */\n      swap1\n      pop\n        /* \"#utility.yul\":3522:3531   */\n      dup2\n        /* \"#utility.yul\":3516:3520   */\n      dup2\n        /* \"#utility.yul\":3512:3532   */\n      sub\n        /* \"#utility.yul\":3508:3509   */\n      0x00\n        /* \"#utility.yul\":3497:3506   */\n      dup4\n        /* \"#utility.yul\":3493:3510   */\n      add\n        /* \"#utility.yul\":3486:3533   */\n      mstore\n        /* \"#utility.yul\":3550:3681   */\n      tag_112\n        /* \"#utility.yul\":3676:3680   */\n      dup2\n        /* \"#utility.yul\":3550:3681   */\n      tag_63\n      jump\t// in\n    tag_112:\n        /* \"#utility.yul\":3542:3681   */\n      swap1\n      pop\n        /* \"#utility.yul\":3269:3688   */\n      swap2\n      swap1\n      pop\n      jump\t// out\n        /* \"#utility.yul\":3694:3922   */\n    tag_64:\n        /* \"#utility.yul\":3834:3868   */\n      0x416d6f756e7420746f2062652057697468647261776e2063616e6e6f74206265\n        /* \"#utility.yul\":3830:3831   */\n      0x00\n        /* \"#utility.yul\":3822:3828   */\n      dup3\n        /* \"#utility.yul\":3818:3832   */\n      add\n        /* \"#utility.yul\":3811:3869   */\n      mstore\n        /* \"#utility.yul\":3903:3914   */\n      0x204e656761746976650000000000000000000000000000000000000000000000\n        /* \"#utility.yul\":3898:3900   */\n      0x20\n        /* \"#utility.yul\":3890:3896   */\n      dup3\n        /* \"#utility.yul\":3886:3901   */\n      add\n        /* \"#utility.yul\":3879:3915   */\n      mstore\n        /* \"#utility.yul\":3694:3922   */\n      pop\n      jump\t// out\n        /* \"#utility.yul\":3928:4294   */\n    tag_65:\n        /* \"#utility.yul\":4070:4073   */\n      0x00\n        /* \"#utility.yul\":4091:4158   */\n      tag_115\n        /* \"#utility.yul\":4155:4157   */\n      0x29\n        /* \"#utility.yul\":4150:4153   */\n      dup4\n        /* \"#utility.yul\":4091:4158   */\n      tag_57\n      jump\t// in\n    tag_115:\n        /* \"#utility.yul\":4084:4158   */\n      swap2\n      pop\n        /* \"#utility.yul\":4167:4260   */\n      tag_116\n        /* \"#utility.yul\":4256:4259   */\n      dup3\n        /* \"#utility.yul\":4167:4260   */\n      tag_64\n      jump\t// in\n    tag_116:\n        /* \"#utility.yul\":4285:4287   */\n      0x40\n        /* \"#utility.yul\":4280:4283   */\n      dup3\n        /* \"#utility.yul\":4276:4288   */\n      add\n        /* \"#utility.yul\":4269:4288   */\n      swap1\n      pop\n        /* \"#utility.yul\":3928:4294   */\n      swap2\n      swap1\n      pop\n      jump\t// out\n        /* \"#utility.yul\":4300:4719   */\n    tag_30:\n        /* \"#utility.yul\":4466:4470   */\n      0x00\n        /* \"#utility.yul\":4504:4506   */\n      0x20\n        /* \"#utility.yul\":4493:4502   */\n      dup3\n        /* \"#utility.yul\":4489:4507   */\n      add\n        /* \"#utility.yul\":4481:4507   */\n      swap1\n      pop\n        /* \"#utility.yul\":4553:4562   */\n      dup2\n        /* \"#utility.yul\":4547:4551   */\n      dup2\n        /* \"#utility.yul\":4543:4563   */\n      sub\n        /* \"#utility.yul\":4539:4540   */\n      0x00\n        /* \"#utility.yul\":4528:4537   */\n      dup4\n        /* \"#utility.yul\":4524:4541   */\n      add\n        /* \"#utility.yul\":4517:4564   */\n      mstore\n        /* \"#utility.yul\":4581:4712   */\n      tag_118\n        /* \"#utility.yul\":4707:4711   */\n      dup2\n        /* \"#utility.yul\":4581:4712   */\n      tag_65\n      jump\t// in\n    tag_118:\n        /* \"#utility.yul\":4573:4712   */\n      swap1\n      pop\n        /* \"#utility.yul\":4300:4719   */\n      swap2\n      swap1\n      pop\n      jump\t// out\n        /* \"#utility.yul\":4725:4896   */\n    tag_66:\n        /* \"#utility.yul\":4865:4888   */\n      0x496e73756666696369656e742042616c616e6365210000000000000000000000\n        /* \"#utility.yul\":4861:4862   */\n      0x00\n        /* \"#utility.yul\":4853:4859   */\n      dup3\n        /* \"#utility.yul\":4849:4863   */\n      add\n        /* \"#utility.yul\":4842:4889   */\n      mstore\n        /* \"#utility.yul\":4725:4896   */\n      pop\n      jump\t// out\n        /* \"#utility.yul\":4902:5268   */\n    tag_67:\n        /* \"#utility.yul\":5044:5047   */\n      0x00\n        /* \"#utility.yul\":5065:5132   */\n      tag_121\n        /* \"#utility.yul\":5129:5131   */\n      0x15\n        /* \"#utility.yul\":5124:5127   */\n      dup4\n        /* \"#utility.yul\":5065:5132   */\n      tag_57\n      jump\t// in\n    tag_121:\n        /* \"#utility.yul\":5058:5132   */\n      swap2\n      pop\n        /* \"#utility.yul\":5141:5234   */\n      tag_122\n        /* \"#utility.yul\":5230:5233   */\n      dup3\n        /* \"#utility.yul\":5141:5234   */\n      tag_66\n      jump\t// in\n    tag_122:\n        /* \"#utility.yul\":5259:5261   */\n      0x20\n        /* \"#utility.yul\":5254:5257   */\n      dup3\n        /* \"#utility.yul\":5250:5262   */\n      add\n        /* \"#utility.yul\":5243:5262   */\n      swap1\n      pop\n        /* \"#utility.yul\":4902:5268   */\n      swap2\n      swap1\n      pop\n      jump\t// out\n        /* \"#utility.yul\":5274:5693   */\n    tag_33:\n        /* \"#utility.yul\":5440:5444   */\n      0x00\n        /* \"#utility.yul\":5478:5480   */\n      0x20\n        /* \"#utility.yul\":5467:5476   */\n      dup3\n        /* \"#utility.yul\":5463:5481   */\n      add\n        /* \"#utility.yul\":5455:5481   */\n      swap1\n      pop\n        /* \"#utility.yul\":5527:5536   */\n      dup2\n        /* \"#utility.yul\":5521:5525   */\n      dup2\n        /* \"#utility.yul\":5517:5537   */\n      sub\n        /* \"#utility.yul\":5513:5514   */\n      0x00\n        /* \"#utility.yul\":5502:5511   */\n      dup4\n        /* \"#utility.yul\":5498:5515   */\n      add\n        /* \"#utility.yul\":5491:5538   */\n      mstore\n        /* \"#utility.yul\":5555:5686   */\n      tag_124\n        /* \"#utility.yul\":5681:5685   */\n      dup2\n        /* \"#utility.yul\":5555:5686   */\n      tag_67\n      jump\t// in\n    tag_124:\n        /* \"#utility.yul\":5547:5686   */\n      swap1\n      pop\n        /* \"#utility.yul\":5274:5693   */\n      swap2\n      swap1\n      pop\n      jump\t// out\n        /* \"#utility.yul\":5699:5879   */\n    tag_68:\n        /* \"#utility.yul\":5747:5824   */\n      0x4e487b7100000000000000000000000000000000000000000000000000000000\n        /* \"#utility.yul\":5744:5745   */\n      0x00\n        /* \"#utility.yul\":5737:5825   */\n      mstore\n        /* \"#utility.yul\":5844:5848   */\n      0x11\n        /* \"#utility.yul\":5841:5842   */\n      0x04\n        /* \"#utility.yul\":5834:5849   */\n      mstore\n        /* \"#utility.yul\":5868:5872   */\n      0x24\n        /* \"#utility.yul\":5865:5866   */\n      0x00\n        /* \"#utility.yul\":5858:5873   */\n      revert\n        /* \"#utility.yul\":5885:6079   */\n    tag_35:\n        /* \"#utility.yul\":5925:5929   */\n      0x00\n        /* \"#utility.yul\":5945:5965   */\n      tag_127\n        /* \"#utility.yul\":5963:5964   */\n      dup3\n        /* \"#utility.yul\":5945:5965   */\n      tag_53\n      jump\t// in\n    tag_127:\n        /* \"#utility.yul\":5940:5965   */\n      swap2\n      pop\n        /* \"#utility.yul\":5979:5999   */\n      tag_128\n        /* \"#utility.yul\":5997:5998   */\n      dup4\n        /* \"#utility.yul\":5979:5999   */\n      tag_53\n      jump\t// in\n    tag_128:\n        /* \"#utility.yul\":5974:5999   */\n      swap3\n      pop\n        /* \"#utility.yul\":6023:6024   */\n      dup3\n        /* \"#utility.yul\":6020:6021   */\n      dup3\n        /* \"#utility.yul\":6016:6025   */\n      sub\n        /* \"#utility.yul\":6008:6025   */\n      swap1\n      pop\n        /* \"#utility.yul\":6047:6048   */\n      dup2\n        /* \"#utility.yul\":6041:6045   */\n      dup2\n        /* \"#utility.yul\":6038:6049   */\n      gt\n        /* \"#utility.yul\":6035:6072   */\n      iszero\n      tag_129\n      jumpi\n        /* \"#utility.yul\":6052:6070   */\n      tag_130\n      tag_68\n      jump\t// in\n    tag_130:\n        /* \"#utility.yul\":6035:6072   */\n    tag_129:\n        /* \"#utility.yul\":5885:6079   */\n      swap3\n      swap2\n      pop\n      pop\n      jump\t// out\n        /* \"#utility.yul\":6085:6260   */\n    tag_69:\n        /* \"#utility.yul\":6225:6252   */\n      0x4163636f756e7420616c72656164792065786973747320212000000000000000\n        /* \"#utility.yul\":6221:6222   */\n      0x00\n        /* \"#utility.yul\":6213:6219   */\n      dup3\n        /* \"#utility.yul\":6209:6223   */\n      add\n        /* \"#utility.yul\":6202:6253   */\n      mstore\n        /* \"#utility.yul\":6085:6260   */\n      pop\n      jump\t// out\n        /* \"#utility.yul\":6266:6632   */\n    tag_70:\n        /* \"#utility.yul\":6408:6411   */\n      0x00\n        /* \"#utility.yul\":6429:6496   */\n      tag_133\n        /* \"#utility.yul\":6493:6495   */\n      0x19\n        /* \"#utility.yul\":6488:6491   */\n      dup4\n        /* \"#utility.yul\":6429:6496   */\n      tag_57\n      jump\t// in\n    tag_133:\n        /* \"#utility.yul\":6422:6496   */\n      swap2\n      pop\n        /* \"#utility.yul\":6505:6598   */\n      tag_134\n        /* \"#utility.yul\":6594:6597   */\n      dup3\n        /* \"#utility.yul\":6505:6598   */\n      tag_69\n      jump\t// in\n    tag_134:\n        /* \"#utility.yul\":6623:6625   */\n      0x20\n        /* \"#utility.yul\":6618:6621   */\n      dup3\n        /* \"#utility.yul\":6614:6626   */\n      add\n        /* \"#utility.yul\":6607:6626   */\n      swap1\n      pop\n        /* \"#utility.yul\":6266:6632   */\n      swap2\n      swap1\n      pop\n      jump\t// out\n        /* \"#utility.yul\":6638:7057   */\n    tag_39:\n        /* \"#utility.yul\":6804:6808   */\n      0x00\n        /* \"#utility.yul\":6842:6844   */\n      0x20\n        /* \"#utility.yul\":6831:6840   */\n      dup3\n        /* \"#utility.yul\":6827:6845   */\n      add\n        /* \"#utility.yul\":6819:6845   */\n      swap1\n      pop\n        /* \"#utility.yul\":6891:6900   */\n      dup2\n        /* \"#utility.yul\":6885:6889   */\n      dup2\n        /* \"#utility.yul\":6881:6901   */\n      sub\n        /* \"#utility.yul\":6877:6878   */\n      0x00\n        /* \"#utility.yul\":6866:6875   */\n      dup4\n        /* \"#utility.yul\":6862:6879   */\n      add\n        /* \"#utility.yul\":6855:6902   */\n      mstore\n        /* \"#utility.yul\":6919:7050   */\n      tag_136\n        /* \"#utility.yul\":7045:7049   */\n      dup2\n        /* \"#utility.yul\":6919:7050   */\n      tag_70\n      jump\t// in\n    tag_136:\n        /* \"#utility.yul\":6911:7050   */\n      swap1\n      pop\n        /* \"#utility.yul\":6638:7057   */\n      swap2\n      swap1\n      pop\n      jump\t// out\n        /* \"#utility.yul\":7063:7236   */\n    tag_71:\n        /* \"#utility.yul\":7203:7228   */\n      0x4163636f756e7420446f6573206e6f7420457869737421000000000000000000\n        /* \"#utility.yul\":7199:7200   */\n      0x00\n        /* \"#utility.yul\":7191:7197   */\n      dup3\n        /* \"#utility.yul\":7187:7201   */\n      add\n        /* \"#utility.yul\":7180:7229   */\n      mstore\n        /* \"#utility.yul\":7063:7236   */\n      pop\n      jump\t// out\n        /* \"#utility.yul\":7242:7608   */\n    tag_72:\n        /* \"#utility.yul\":7384:7387   */\n      0x00\n        /* \"#utility.yul\":7405:7472   */\n      tag_139\n        /* \"#utility.yul\":7469:7471   */\n      0x17\n        /* \"#utility.yul\":7464:7467   */\n      dup4\n        /* \"#utility.yul\":7405:7472   */\n      tag_57\n      jump\t// in\n    tag_139:\n        /* \"#utility.yul\":7398:7472   */\n      swap2\n      pop\n        /* \"#utility.yul\":7481:7574   */\n      tag_140\n        /* \"#utility.yul\":7570:7573   */\n      dup3\n        /* \"#utility.yul\":7481:7574   */\n      tag_71\n      jump\t// in\n    tag_140:\n        /* \"#utility.yul\":7599:7601   */\n      0x20\n        /* \"#utility.yul\":7594:7597   */\n      dup3\n        /* \"#utility.yul\":7590:7602   */\n      add\n        /* \"#utility.yul\":7583:7602   */\n      swap1\n      pop\n        /* \"#utility.yul\":7242:7608   */\n      swap2\n      swap1\n      pop\n      jump\t// out\n        /* \"#utility.yul\":7614:8033   */\n    tag_44:\n        /* \"#utility.yul\":7780:7784   */\n      0x00\n        /* \"#utility.yul\":7818:7820   */\n      0x20\n        /* \"#utility.yul\":7807:7816   */\n      dup3\n        /* \"#utility.yul\":7803:7821   */\n      add\n        /* \"#utility.yul\":7795:7821   */\n      swap1\n      pop\n        /* \"#utility.yul\":7867:7876   */\n      dup2\n        /* \"#utility.yul\":7861:7865   */\n      dup2\n        /* \"#utility.yul\":7857:7877   */\n      sub\n        /* \"#utility.yul\":7853:7854   */\n      0x00\n        /* \"#utility.yul\":7842:7851   */\n      dup4\n        /* \"#utility.yul\":7838:7855   */\n      add\n        /* \"#utility.yul\":7831:7878   */\n      mstore\n        /* \"#utility.yul\":7895:8026   */\n      tag_142\n        /* \"#utility.yul\":8021:8025   */\n      dup2\n        /* \"#utility.yul\":7895:8026   */\n      tag_72\n      jump\t// in\n    tag_142:\n        /* \"#utility.yul\":7887:8026   */\n      swap1\n      pop\n        /* \"#utility.yul\":7614:8033   */\n      swap2\n      swap1\n      pop\n      jump\t// out\n        /* \"#utility.yul\":8039:8267   */\n    tag_73:\n        /* \"#utility.yul\":8179:8213   */\n      0x416d6f756e7420746f206265204465706f73697465642043616e6e6f74206265\n        /* \"#utility.yul\":8175:8176   */\n      0x00\n        /* \"#utility.yul\":8167:8173   */\n      dup3\n        /* \"#utility.yul\":8163:8177   */\n      add\n        /* \"#utility.yul\":8156:8214   */\n      mstore\n        /* \"#utility.yul\":8248:8259   */\n      0x204e656761746976650000000000000000000000000000000000000000000000\n        /* \"#utility.yul\":8243:8245   */\n      0x20\n        /* \"#utility.yul\":8235:8241   */\n      dup3\n        /* \"#utility.yul\":8231:8246   */\n      add\n        /* \"#utility.yul\":8224:8260   */\n      mstore\n        /* \"#utility.yul\":8039:8267   */\n      pop\n      jump\t// out\n        /* \"#utility.yul\":8273:8639   */\n    tag_74:\n        /* \"#utility.yul\":8415:8418   */\n      0x00\n        /* \"#utility.yul\":8436:8503   */\n      tag_145\n        /* \"#utility.yul\":8500:8502   */\n      0x29\n        /* \"#utility.yul\":8495:8498   */\n      dup4\n        /* \"#utility.yul\":8436:8503   */\n      tag_57\n      jump\t// in\n    tag_145:\n        /* \"#utility.yul\":8429:8503   */\n      swap2\n      pop\n        /* \"#utility.yul\":8512:8605   */\n      tag_146\n        /* \"#utility.yul\":8601:8604   */\n      dup3\n        /* \"#utility.yul\":8512:8605   */\n      tag_73\n      jump\t// in\n    tag_146:\n        /* \"#utility.yul\":8630:8632   */\n      0x40\n        /* \"#utility.yul\":8625:8628   */\n      dup3\n        /* \"#utility.yul\":8621:8633   */\n      add\n        /* \"#utility.yul\":8614:8633   */\n      swap1\n      pop\n        /* \"#utility.yul\":8273:8639   */\n      swap2\n      swap1\n      pop\n      jump\t// out\n        /* \"#utility.yul\":8645:9064   */\n    tag_47:\n        /* \"#utility.yul\":8811:8815   */\n      0x00\n        /* \"#utility.yul\":8849:8851   */\n      0x20\n        /* \"#utility.yul\":8838:8847   */\n      dup3\n        /* \"#utility.yul\":8834:8852   */\n      add\n        /* \"#utility.yul\":8826:8852   */\n      swap1\n      pop\n        /* \"#utility.yul\":8898:8907   */\n      dup2\n        /* \"#utility.yul\":8892:8896   */\n      dup2\n        /* \"#utility.yul\":8888:8908   */\n      sub\n        /* \"#utility.yul\":8884:8885   */\n      0x00\n        /* \"#utility.yul\":8873:8882   */\n      dup4\n        /* \"#utility.yul\":8869:8886   */\n      add\n        /* \"#utility.yul\":8862:8909   */\n      mstore\n        /* \"#utility.yul\":8926:9057   */\n      tag_148\n        /* \"#utility.yul\":9052:9056   */\n      dup2\n        /* \"#utility.yul\":8926:9057   */\n      tag_74\n      jump\t// in\n    tag_148:\n        /* \"#utility.yul\":8918:9057   */\n      swap1\n      pop\n        /* \"#utility.yul\":8645:9064   */\n      swap2\n      swap1\n      pop\n      jump\t// out\n        /* \"#utility.yul\":9070:9261   */\n    tag_49:\n        /* \"#utility.yul\":9110:9113   */\n      0x00\n        /* \"#utility.yul\":9129:9149   */\n      tag_150\n        /* \"#utility.yul\":9147:9148   */\n      dup3\n        /* \"#utility.yul\":9129:9149   */\n      tag_53\n      jump\t// in\n    tag_150:\n        /* \"#utility.yul\":9124:9149   */\n      swap2\n      pop\n        /* \"#utility.yul\":9163:9183   */\n      tag_151\n        /* \"#utility.yul\":9181:9182   */\n      dup4\n        /* \"#utility.yul\":9163:9183   */\n      tag_53\n      jump\t// in\n    tag_151:\n        /* \"#utility.yul\":9158:9183   */\n      swap3\n      pop\n        /* \"#utility.yul\":9206:9207   */\n      dup3\n        /* \"#utility.yul\":9203:9204   */\n      dup3\n        /* \"#utility.yul\":9199:9208   */\n      add\n        /* \"#utility.yul\":9192:9208   */\n      swap1\n      pop\n        /* \"#utility.yul\":9227:9230   */\n      dup1\n        /* \"#utility.yul\":9224:9225   */\n      dup3\n        /* \"#utility.yul\":9221:9231   */\n      gt\n        /* \"#utility.yul\":9218:9254   */\n      iszero\n      tag_152\n      jumpi\n        /* \"#utility.yul\":9234:9252   */\n      tag_153\n      tag_68\n      jump\t// in\n    tag_153:\n        /* \"#utility.yul\":9218:9254   */\n    tag_152:\n        /* \"#utility.yul\":9070:9261   */\n      swap3\n      swap2\n      pop\n      pop\n      jump\t// out\n\n    auxdata: 0xa264697066735822122085563859e92934e58e2a69c45f3f8f4ecb518f81a317df0f487b2e9640ff266764736f6c63430008160033\n}\n",
				"bytecode": {
					"linkReferences": {},
					"object": "608060405234801561000f575f80fd5b50610a8c8061001d5f395ff3fe60806040526004361061003e575f3560e01c80632e1a7d4d14610042578063509f863314610072578063946d014914610090578063b6b55f25146100ba575b5f80fd5b61005c6004803603810190610057919061060a565b6100ea565b60405161006991906106bf565b60405180910390f35b61007a6102cc565b60405161008791906106bf565b60405180910390f35b34801561009b575f80fd5b506100a461042d565b6040516100b191906106ee565b60405180910390f35b6100d460048036038101906100cf919061060a565b610470565b6040516100e191906106bf565b60405180910390f35b60606001151560015f3373ffffffffffffffffffffffffffffffffffffffff1673ffffffffffffffffffffffffffffffffffffffff1681526020019081526020015f205f9054906101000a900460ff1615151461017c576040517f08c379a000000000000000000000000000000000000000000000000000000000815260040161017390610751565b60405180910390fd5b5f82116101be576040517f08c379a00000000000000000000000000000000000000000000000000000000081526004016101b5906107df565b60405180910390fd5b5f803373ffffffffffffffffffffffffffffffffffffffff1673ffffffffffffffffffffffffffffffffffffffff1681526020019081526020015f205482111561023d576040517f08c379a000000000000000000000000000000000000000000000000000000000815260040161023490610847565b60405180910390fd5b815f803373ffffffffffffffffffffffffffffffffffffffff1673ffffffffffffffffffffffffffffffffffffffff1681526020019081526020015f205f8282546102889190610892565b925050819055506040518060400160405280601d81526020017f416d6f756e74204465706f7369746564205375636365737366756c6c790000008152509050919050565b60605f151560015f3373ffffffffffffffffffffffffffffffffffffffff1673ffffffffffffffffffffffffffffffffffffffff1681526020019081526020015f205f9054906101000a900460ff1615151461035d576040517f08c379a00000000000000000000000000000000000000000000000000000000081526004016103549061090f565b60405180910390fd5b345f803373ffffffffffffffffffffffffffffffffffffffff1673ffffffffffffffffffffffffffffffffffffffff1681526020019081526020015f20819055506001805f3373ffffffffffffffffffffffffffffffffffffffff1673ffffffffffffffffffffffffffffffffffffffff1681526020019081526020015f205f6101000a81548160ff0219169083151502179055506040518060400160405280601c81526020017f4163636f756e74204372656174696f6e205375636365737366756c2100000000815250905090565b5f805f3373ffffffffffffffffffffffffffffffffffffffff1673ffffffffffffffffffffffffffffffffffffffff1681526020019081526020015f2054905090565b60606001151560015f3373ffffffffffffffffffffffffffffffffffffffff1673ffffffffffffffffffffffffffffffffffffffff1681526020019081526020015f205f9054906101000a900460ff16151514610502576040517f08c379a00000000000000000000000000000000000000000000000000000000081526004016104f990610977565b60405180910390fd5b5f8211610544576040517f08c379a000000000000000000000000000000000000000000000000000000000815260040161053b90610a05565b60405180910390fd5b815f803373ffffffffffffffffffffffffffffffffffffffff1673ffffffffffffffffffffffffffffffffffffffff1681526020019081526020015f205f82825461058f9190610a23565b925050819055506040518060400160405280601d81526020017f416d6f756e74204465706f7369746564205375636365737366756c6c790000008152509050919050565b5f80fd5b5f819050919050565b6105e9816105d7565b81146105f3575f80fd5b50565b5f81359050610604816105e0565b92915050565b5f6020828403121561061f5761061e6105d3565b5b5f61062c848285016105f6565b91505092915050565b5f81519050919050565b5f82825260208201905092915050565b5f5b8381101561066c578082015181840152602081019050610651565b5f8484015250505050565b5f601f19601f8301169050919050565b5f61069182610635565b61069b818561063f565b93506106ab81856020860161064f565b6106b481610677565b840191505092915050565b5f6020820190508181035f8301526106d78184610687565b905092915050565b6106e8816105d7565b82525050565b5f6020820190506107015f8301846106df565b92915050565b7f4163636f757420446f6573206e6f7420457869737421000000000000000000005f82015250565b5f61073b60168361063f565b915061074682610707565b602082019050919050565b5f6020820190508181035f8301526107688161072f565b9050919050565b7f416d6f756e7420746f2062652057697468647261776e2063616e6e6f742062655f8201527f204e656761746976650000000000000000000000000000000000000000000000602082015250565b5f6107c960298361063f565b91506107d48261076f565b604082019050919050565b5f6020820190508181035f8301526107f6816107bd565b9050919050565b7f496e73756666696369656e742042616c616e63652100000000000000000000005f82015250565b5f61083160158361063f565b915061083c826107fd565b602082019050919050565b5f6020820190508181035f83015261085e81610825565b9050919050565b7f4e487b71000000000000000000000000000000000000000000000000000000005f52601160045260245ffd5b5f61089c826105d7565b91506108a7836105d7565b92508282039050818111156108bf576108be610865565b5b92915050565b7f4163636f756e7420616c726561647920657869737473202120000000000000005f82015250565b5f6108f960198361063f565b9150610904826108c5565b602082019050919050565b5f6020820190508181035f830152610926816108ed565b9050919050565b7f4163636f756e7420446f6573206e6f74204578697374210000000000000000005f82015250565b5f61096160178361063f565b915061096c8261092d565b602082019050919050565b5f6020820190508181035f83015261098e81610955565b9050919050565b7f416d6f756e7420746f206265204465706f73697465642043616e6e6f742062655f8201527f204e656761746976650000000000000000000000000000000000000000000000602082015250565b5f6109ef60298361063f565b91506109fa82610995565b604082019050919050565b5f6020820190508181035f830152610a1c816109e3565b9050919050565b5f610a2d826105d7565b9150610a38836105d7565b9250828201905080821115610a5057610a4f610865565b5b9291505056fea264697066735822122085563859e92934e58e2a69c45f3f8f4ecb518f81a317df0f487b2e9640ff266764736f6c63430008160033",
					"opcodes": "PUSH1 0x80 PUSH1 0x40 MSTORE CALLVALUE DUP1 ISZERO PUSH2 0xF JUMPI PUSH0 DUP1 REVERT JUMPDEST POP PUSH2 0xA8C DUP1 PUSH2 0x1D PUSH0 CODECOPY PUSH0 RETURN INVALID PUSH1 0x80 PUSH1 0x40 MSTORE PUSH1 0x4 CALLDATASIZE LT PUSH2 0x3E JUMPI PUSH0 CALLDATALOAD PUSH1 0xE0 SHR DUP1 PUSH4 0x2E1A7D4D EQ PUSH2 0x42 JUMPI DUP1 PUSH4 0x509F8633 EQ PUSH2 0x72 JUMPI DUP1 PUSH4 0x946D0149 EQ PUSH2 0x90 JUMPI DUP1 PUSH4 0xB6B55F25 EQ PUSH2 0xBA JUMPI JUMPDEST PUSH0 DUP1 REVERT JUMPDEST PUSH2 0x5C PUSH1 0x4 DUP1 CALLDATASIZE SUB DUP2 ADD SWAP1 PUSH2 0x57 SWAP2 SWAP1 PUSH2 0x60A JUMP JUMPDEST PUSH2 0xEA JUMP JUMPDEST PUSH1 0x40 MLOAD PUSH2 0x69 SWAP2 SWAP1 PUSH2 0x6BF JUMP JUMPDEST PUSH1 0x40 MLOAD DUP1 SWAP2 SUB SWAP1 RETURN JUMPDEST PUSH2 0x7A PUSH2 0x2CC JUMP JUMPDEST PUSH1 0x40 MLOAD PUSH2 0x87 SWAP2 SWAP1 PUSH2 0x6BF JUMP JUMPDEST PUSH1 0x40 MLOAD DUP1 SWAP2 SUB SWAP1 RETURN JUMPDEST CALLVALUE DUP1 ISZERO PUSH2 0x9B JUMPI PUSH0 DUP1 REVERT JUMPDEST POP PUSH2 0xA4 PUSH2 0x42D JUMP JUMPDEST PUSH1 0x40 MLOAD PUSH2 0xB1 SWAP2 SWAP1 PUSH2 0x6EE JUMP JUMPDEST PUSH1 0x40 MLOAD DUP1 SWAP2 SUB SWAP1 RETURN JUMPDEST PUSH2 0xD4 PUSH1 0x4 DUP1 CALLDATASIZE SUB DUP2 ADD SWAP1 PUSH2 0xCF SWAP2 SWAP1 PUSH2 0x60A JUMP JUMPDEST PUSH2 0x470 JUMP JUMPDEST PUSH1 0x40 MLOAD PUSH2 0xE1 SWAP2 SWAP1 PUSH2 0x6BF JUMP JUMPDEST PUSH1 0x40 MLOAD DUP1 SWAP2 SUB SWAP1 RETURN JUMPDEST PUSH1 0x60 PUSH1 0x1 ISZERO ISZERO PUSH1 0x1 PUSH0 CALLER PUSH20 0xFFFFFFFFFFFFFFFFFFFFFFFFFFFFFFFFFFFFFFFF AND PUSH20 0xFFFFFFFFFFFFFFFFFFFFFFFFFFFFFFFFFFFFFFFF AND DUP2 MSTORE PUSH1 0x20 ADD SWAP1 DUP2 MSTORE PUSH1 0x20 ADD PUSH0 KECCAK256 PUSH0 SWAP1 SLOAD SWAP1 PUSH2 0x100 EXP SWAP1 DIV PUSH1 0xFF AND ISZERO ISZERO EQ PUSH2 0x17C JUMPI PUSH1 0x40 MLOAD PUSH32 0x8C379A000000000000000000000000000000000000000000000000000000000 DUP2 MSTORE PUSH1 0x4 ADD PUSH2 0x173 SWAP1 PUSH2 0x751 JUMP JUMPDEST PUSH1 0x40 MLOAD DUP1 SWAP2 SUB SWAP1 REVERT JUMPDEST PUSH0 DUP3 GT PUSH2 0x1BE JUMPI PUSH1 0x40 MLOAD PUSH32 0x8C379A000000000000000000000000000000000000000000000000000000000 DUP2 MSTORE PUSH1 0x4 ADD PUSH2 0x1B5 SWAP1 PUSH2 0x7DF JUMP JUMPDEST PUSH1 0x40 MLOAD DUP1 SWAP2 SUB SWAP1 REVERT JUMPDEST PUSH0 DUP1 CALLER PUSH20 0xFFFFFFFFFFFFFFFFFFFFFFFFFFFFFFFFFFFFFFFF AND PUSH20 0xFFFFFFFFFFFFFFFFFFFFFFFFFFFFFFFFFFFFFFFF AND DUP2 MSTORE PUSH1 0x20 ADD SWAP1 DUP2 MSTORE PUSH1 0x20 ADD PUSH0 KECCAK256 SLOAD DUP3 GT ISZERO PUSH2 0x23D JUMPI PUSH1 0x40 MLOAD PUSH32 0x8C379A000000000000000000000000000000000000000000000000000000000 DUP2 MSTORE PUSH1 0x4 ADD PUSH2 0x234 SWAP1 PUSH2 0x847 JUMP JUMPDEST PUSH1 0x40 MLOAD DUP1 SWAP2 SUB SWAP1 REVERT JUMPDEST DUP2 PUSH0 DUP1 CALLER PUSH20 0xFFFFFFFFFFFFFFFFFFFFFFFFFFFFFFFFFFFFFFFF AND PUSH20 0xFFFFFFFFFFFFFFFFFFFFFFFFFFFFFFFFFFFFFFFF AND DUP2 MSTORE PUSH1 0x20 ADD SWAP1 DUP2 MSTORE PUSH1 0x20 ADD PUSH0 KECCAK256 PUSH0 DUP3 DUP3 SLOAD PUSH2 0x288 SWAP2 SWAP1 PUSH2 0x892 JUMP JUMPDEST SWAP3 POP POP DUP2 SWAP1 SSTORE POP PUSH1 0x40 MLOAD DUP1 PUSH1 0x40 ADD PUSH1 0x40 MSTORE DUP1 PUSH1 0x1D DUP2 MSTORE PUSH1 0x20 ADD PUSH32 0x416D6F756E74204465706F7369746564205375636365737366756C6C79000000 DUP2 MSTORE POP SWAP1 POP SWAP2 SWAP1 POP JUMP JUMPDEST PUSH1 0x60 PUSH0 ISZERO ISZERO PUSH1 0x1 PUSH0 CALLER PUSH20 0xFFFFFFFFFFFFFFFFFFFFFFFFFFFFFFFFFFFFFFFF AND PUSH20 0xFFFFFFFFFFFFFFFFFFFFFFFFFFFFFFFFFFFFFFFF AND DUP2 MSTORE PUSH1 0x20 ADD SWAP1 DUP2 MSTORE PUSH1 0x20 ADD PUSH0 KECCAK256 PUSH0 SWAP1 SLOAD SWAP1 PUSH2 0x100 EXP SWAP1 DIV PUSH1 0xFF AND ISZERO ISZERO EQ PUSH2 0x35D JUMPI PUSH1 0x40 MLOAD PUSH32 0x8C379A000000000000000000000000000000000000000000000000000000000 DUP2 MSTORE PUSH1 0x4 ADD PUSH2 0x354 SWAP1 PUSH2 0x90F JUMP JUMPDEST PUSH1 0x40 MLOAD DUP1 SWAP2 SUB SWAP1 REVERT JUMPDEST CALLVALUE PUSH0 DUP1 CALLER PUSH20 0xFFFFFFFFFFFFFFFFFFFFFFFFFFFFFFFFFFFFFFFF AND PUSH20 0xFFFFFFFFFFFFFFFFFFFFFFFFFFFFFFFFFFFFFFFF AND DUP2 MSTORE PUSH1 0x20 ADD SWAP1 DUP2 MSTORE PUSH1 0x20 ADD PUSH0 KECCAK256 DUP2 SWAP1 SSTORE POP PUSH1 0x1 DUP1 PUSH0 CALLER PUSH20 0xFFFFFFFFFFFFFFFFFFFFFFFFFFFFFFFFFFFFFFFF AND PUSH20 0xFFFFFFFFFFFFFFFFFFFFFFFFFFFFFFFFFFFFFFFF AND DUP2 MSTORE PUSH1 0x20 ADD SWAP1 DUP2 MSTORE PUSH1 0x20 ADD PUSH0 KECCAK256 PUSH0 PUSH2 0x100 EXP DUP2 SLOAD DUP2 PUSH1 0xFF MUL NOT AND SWAP1 DUP4 ISZERO ISZERO MUL OR SWAP1 SSTORE POP PUSH1 0x40 MLOAD DUP1 PUSH1 0x40 ADD PUSH1 0x40 MSTORE DUP1 PUSH1 0x1C DUP2 MSTORE PUSH1 0x20 ADD PUSH32 0x4163636F756E74204372656174696F6E205375636365737366756C2100000000 DUP2 MSTORE POP SWAP1 POP SWAP1 JUMP JUMPDEST PUSH0 DUP1 PUSH0 CALLER PUSH20 0xFFFFFFFFFFFFFFFFFFFFFFFFFFFFFFFFFFFFFFFF AND PUSH20 0xFFFFFFFFFFFFFFFFFFFFFFFFFFFFFFFFFFFFFFFF AND DUP2 MSTORE PUSH1 0x20 ADD SWAP1 DUP2 MSTORE PUSH1 0x20 ADD PUSH0 KECCAK256 SLOAD SWAP1 POP SWAP1 JUMP JUMPDEST PUSH1 0x60 PUSH1 0x1 ISZERO ISZERO PUSH1 0x1 PUSH0 CALLER PUSH20 0xFFFFFFFFFFFFFFFFFFFFFFFFFFFFFFFFFFFFFFFF AND PUSH20 0xFFFFFFFFFFFFFFFFFFFFFFFFFFFFFFFFFFFFFFFF AND DUP2 MSTORE PUSH1 0x20 ADD SWAP1 DUP2 MSTORE PUSH1 0x20 ADD PUSH0 KECCAK256 PUSH0 SWAP1 SLOAD SWAP1 PUSH2 0x100 EXP SWAP1 DIV PUSH1 0xFF AND ISZERO ISZERO EQ PUSH2 0x502 JUMPI PUSH1 0x40 MLOAD PUSH32 0x8C379A000000000000000000000000000000000000000000000000000000000 DUP2 MSTORE PUSH1 0x4 ADD PUSH2 0x4F9 SWAP1 PUSH2 0x977 JUMP JUMPDEST PUSH1 0x40 MLOAD DUP1 SWAP2 SUB SWAP1 REVERT JUMPDEST PUSH0 DUP3 GT PUSH2 0x544 JUMPI PUSH1 0x40 MLOAD PUSH32 0x8C379A000000000000000000000000000000000000000000000000000000000 DUP2 MSTORE PUSH1 0x4 ADD PUSH2 0x53B SWAP1 PUSH2 0xA05 JUMP JUMPDEST PUSH1 0x40 MLOAD DUP1 SWAP2 SUB SWAP1 REVERT JUMPDEST DUP2 PUSH0 DUP1 CALLER PUSH20 0xFFFFFFFFFFFFFFFFFFFFFFFFFFFFFFFFFFFFFFFF AND PUSH20 0xFFFFFFFFFFFFFFFFFFFFFFFFFFFFFFFFFFFFFFFF AND DUP2 MSTORE PUSH1 0x20 ADD SWAP1 DUP2 MSTORE PUSH1 0x20 ADD PUSH0 KECCAK256 PUSH0 DUP3 DUP3 SLOAD PUSH2 0x58F SWAP2 SWAP1 PUSH2 0xA23 JUMP JUMPDEST SWAP3 POP POP DUP2 SWAP1 SSTORE POP PUSH1 0x40 MLOAD DUP1 PUSH1 0x40 ADD PUSH1 0x40 MSTORE DUP1 PUSH1 0x1D DUP2 MSTORE PUSH1 0x20 ADD PUSH32 0x416D6F756E74204465706F7369746564205375636365737366756C6C79000000 DUP2 MSTORE POP SWAP1 POP SWAP2 SWAP1 POP JUMP JUMPDEST PUSH0 DUP1 REVERT JUMPDEST PUSH0 DUP2 SWAP1 POP SWAP2 SWAP1 POP JUMP JUMPDEST PUSH2 0x5E9 DUP2 PUSH2 0x5D7 JUMP JUMPDEST DUP2 EQ PUSH2 0x5F3 JUMPI PUSH0 DUP1 REVERT JUMPDEST POP JUMP JUMPDEST PUSH0 DUP2 CALLDATALOAD SWAP1 POP PUSH2 0x604 DUP2 PUSH2 0x5E0 JUMP JUMPDEST SWAP3 SWAP2 POP POP JUMP JUMPDEST PUSH0 PUSH1 0x20 DUP3 DUP5 SUB SLT ISZERO PUSH2 0x61F JUMPI PUSH2 0x61E PUSH2 0x5D3 JUMP JUMPDEST JUMPDEST PUSH0 PUSH2 0x62C DUP5 DUP3 DUP6 ADD PUSH2 0x5F6 JUMP JUMPDEST SWAP2 POP POP SWAP3 SWAP2 POP POP JUMP JUMPDEST PUSH0 DUP2 MLOAD SWAP1 POP SWAP2 SWAP1 POP JUMP JUMPDEST PUSH0 DUP3 DUP3 MSTORE PUSH1 0x20 DUP3 ADD SWAP1 POP SWAP3 SWAP2 POP POP JUMP JUMPDEST PUSH0 JUMPDEST DUP4 DUP2 LT ISZERO PUSH2 0x66C JUMPI DUP1 DUP3 ADD MLOAD DUP2 DUP5 ADD MSTORE PUSH1 0x20 DUP2 ADD SWAP1 POP PUSH2 0x651 JUMP JUMPDEST PUSH0 DUP5 DUP5 ADD MSTORE POP POP POP POP JUMP JUMPDEST PUSH0 PUSH1 0x1F NOT PUSH1 0x1F DUP4 ADD AND SWAP1 POP SWAP2 SWAP1 POP JUMP JUMPDEST PUSH0 PUSH2 0x691 DUP3 PUSH2 0x635 JUMP JUMPDEST PUSH2 0x69B DUP2 DUP6 PUSH2 0x63F JUMP JUMPDEST SWAP4 POP PUSH2 0x6AB DUP2 DUP6 PUSH1 0x20 DUP7 ADD PUSH2 0x64F JUMP JUMPDEST PUSH2 0x6B4 DUP2 PUSH2 0x677 JUMP JUMPDEST DUP5 ADD SWAP2 POP POP SWAP3 SWAP2 POP POP JUMP JUMPDEST PUSH0 PUSH1 0x20 DUP3 ADD SWAP1 POP DUP2 DUP2 SUB PUSH0 DUP4 ADD MSTORE PUSH2 0x6D7 DUP2 DUP5 PUSH2 0x687 JUMP JUMPDEST SWAP1 POP SWAP3 SWAP2 POP POP JUMP JUMPDEST PUSH2 0x6E8 DUP2 PUSH2 0x5D7 JUMP JUMPDEST DUP3 MSTORE POP POP JUMP JUMPDEST PUSH0 PUSH1 0x20 DUP3 ADD SWAP1 POP PUSH2 0x701 PUSH0 DUP4 ADD DUP5 PUSH2 0x6DF JUMP JUMPDEST SWAP3 SWAP2 POP POP JUMP JUMPDEST PUSH32 0x4163636F757420446F6573206E6F742045786973742100000000000000000000 PUSH0 DUP3 ADD MSTORE POP JUMP JUMPDEST PUSH0 PUSH2 0x73B PUSH1 0x16 DUP4 PUSH2 0x63F JUMP JUMPDEST SWAP2 POP PUSH2 0x746 DUP3 PUSH2 0x707 JUMP JUMPDEST PUSH1 0x20 DUP3 ADD SWAP1 POP SWAP2 SWAP1 POP JUMP JUMPDEST PUSH0 PUSH1 0x20 DUP3 ADD SWAP1 POP DUP2 DUP2 SUB PUSH0 DUP4 ADD MSTORE PUSH2 0x768 DUP2 PUSH2 0x72F JUMP JUMPDEST SWAP1 POP SWAP2 SWAP1 POP JUMP JUMPDEST PUSH32 0x416D6F756E7420746F2062652057697468647261776E2063616E6E6F74206265 PUSH0 DUP3 ADD MSTORE PUSH32 0x204E656761746976650000000000000000000000000000000000000000000000 PUSH1 0x20 DUP3 ADD MSTORE POP JUMP JUMPDEST PUSH0 PUSH2 0x7C9 PUSH1 0x29 DUP4 PUSH2 0x63F JUMP JUMPDEST SWAP2 POP PUSH2 0x7D4 DUP3 PUSH2 0x76F JUMP JUMPDEST PUSH1 0x40 DUP3 ADD SWAP1 POP SWAP2 SWAP1 POP JUMP JUMPDEST PUSH0 PUSH1 0x20 DUP3 ADD SWAP1 POP DUP2 DUP2 SUB PUSH0 DUP4 ADD MSTORE PUSH2 0x7F6 DUP2 PUSH2 0x7BD JUMP JUMPDEST SWAP1 POP SWAP2 SWAP1 POP JUMP JUMPDEST PUSH32 0x496E73756666696369656E742042616C616E6365210000000000000000000000 PUSH0 DUP3 ADD MSTORE POP JUMP JUMPDEST PUSH0 PUSH2 0x831 PUSH1 0x15 DUP4 PUSH2 0x63F JUMP JUMPDEST SWAP2 POP PUSH2 0x83C DUP3 PUSH2 0x7FD JUMP JUMPDEST PUSH1 0x20 DUP3 ADD SWAP1 POP SWAP2 SWAP1 POP JUMP JUMPDEST PUSH0 PUSH1 0x20 DUP3 ADD SWAP1 POP DUP2 DUP2 SUB PUSH0 DUP4 ADD MSTORE PUSH2 0x85E DUP2 PUSH2 0x825 JUMP JUMPDEST SWAP1 POP SWAP2 SWAP1 POP JUMP JUMPDEST PUSH32 0x4E487B7100000000000000000000000000000000000000000000000000000000 PUSH0 MSTORE PUSH1 0x11 PUSH1 0x4 MSTORE PUSH1 0x24 PUSH0 REVERT JUMPDEST PUSH0 PUSH2 0x89C DUP3 PUSH2 0x5D7 JUMP JUMPDEST SWAP2 POP PUSH2 0x8A7 DUP4 PUSH2 0x5D7 JUMP JUMPDEST SWAP3 POP DUP3 DUP3 SUB SWAP1 POP DUP2 DUP2 GT ISZERO PUSH2 0x8BF JUMPI PUSH2 0x8BE PUSH2 0x865 JUMP JUMPDEST JUMPDEST SWAP3 SWAP2 POP POP JUMP JUMPDEST PUSH32 0x4163636F756E7420616C72656164792065786973747320212000000000000000 PUSH0 DUP3 ADD MSTORE POP JUMP JUMPDEST PUSH0 PUSH2 0x8F9 PUSH1 0x19 DUP4 PUSH2 0x63F JUMP JUMPDEST SWAP2 POP PUSH2 0x904 DUP3 PUSH2 0x8C5 JUMP JUMPDEST PUSH1 0x20 DUP3 ADD SWAP1 POP SWAP2 SWAP1 POP JUMP JUMPDEST PUSH0 PUSH1 0x20 DUP3 ADD SWAP1 POP DUP2 DUP2 SUB PUSH0 DUP4 ADD MSTORE PUSH2 0x926 DUP2 PUSH2 0x8ED JUMP JUMPDEST SWAP1 POP SWAP2 SWAP1 POP JUMP JUMPDEST PUSH32 0x4163636F756E7420446F6573206E6F7420457869737421000000000000000000 PUSH0 DUP3 ADD MSTORE POP JUMP JUMPDEST PUSH0 PUSH2 0x961 PUSH1 0x17 DUP4 PUSH2 0x63F JUMP JUMPDEST SWAP2 POP PUSH2 0x96C DUP3 PUSH2 0x92D JUMP JUMPDEST PUSH1 0x20 DUP3 ADD SWAP1 POP SWAP2 SWAP1 POP JUMP JUMPDEST PUSH0 PUSH1 0x20 DUP3 ADD SWAP1 POP DUP2 DUP2 SUB PUSH0 DUP4 ADD MSTORE PUSH2 0x98E DUP2 PUSH2 0x955 JUMP JUMPDEST SWAP1 POP SWAP2 SWAP1 POP JUMP JUMPDEST PUSH32 0x416D6F756E7420746F206265204465706F73697465642043616E6E6F74206265 PUSH0 DUP3 ADD MSTORE PUSH32 0x204E656761746976650000000000000000000000000000000000000000000000 PUSH1 0x20 DUP3 ADD MSTORE POP JUMP JUMPDEST PUSH0 PUSH2 0x9EF PUSH1 0x29 DUP4 PUSH2 0x63F JUMP JUMPDEST SWAP2 POP PUSH2 0x9FA DUP3 PUSH2 0x995 JUMP JUMPDEST PUSH1 0x40 DUP3 ADD SWAP1 POP SWAP2 SWAP1 POP JUMP JUMPDEST PUSH0 PUSH1 0x20 DUP3 ADD SWAP1 POP DUP2 DUP2 SUB PUSH0 DUP4 ADD MSTORE PUSH2 0xA1C DUP2 PUSH2 0x9E3 JUMP JUMPDEST SWAP1 POP SWAP2 SWAP1 POP JUMP JUMPDEST PUSH0 PUSH2 0xA2D DUP3 PUSH2 0x5D7 JUMP JUMPDEST SWAP2 POP PUSH2 0xA38 DUP4 PUSH2 0x5D7 JUMP JUMPDEST SWAP3 POP DUP3 DUP3 ADD SWAP1 POP DUP1 DUP3 GT ISZERO PUSH2 0xA50 JUMPI PUSH2 0xA4F PUSH2 0x865 JUMP JUMPDEST JUMPDEST SWAP3 SWAP2 POP POP JUMP INVALID LOG2 PUSH5 0x6970667358 0x22 SLT KECCAK256 DUP6 JUMP CODESIZE MSIZE 0xE9 0x29 CALLVALUE 0xE5 DUP15 0x2A PUSH10 0xC45F3F8F4ECB518F81A3 OR 0xDF 0xF BASEFEE PUSH28 0x2E9640FF266764736F6C634300081600330000000000000000000000 "
				},
				"gasEstimates": {
					"creation": {
						"codeDepositCost": "540000",
						"executionCost": "573",
						"totalCost": "540573"
					},
					"external": {
						"create_account()": "infinite",
						"deposit(uint256)": "infinite",
						"show_balance()": "2541",
						"withdraw(uint256)": "infinite"
					}
				},
				"methodIdentifiers": {
					"create_account()": "509f8633",
					"deposit(uint256)": "b6b55f25",
					"show_balance()": "946d0149",
					"withdraw(uint256)": "2e1a7d4d"
				}
			},
			"storageLayout": {
				"storage": [
					{
						"astId": 5,
						"contract": "BT/Bank/bank.sol:Bank",
						"label": "user_account",
						"offset": 0,
						"slot": "0",
						"type": "t_mapping(t_address,t_uint256)"
					},
					{
						"astId": 9,
						"contract": "BT/Bank/bank.sol:Bank",
						"label": "user_exists",
						"offset": 0,
						"slot": "1",
						"type": "t_mapping(t_address,t_bool)"
					}
				],
				"types": {
					"t_address": {
						"encoding": "inplace",
						"label": "address",
						"numberOfBytes": "20"
					},
					"t_bool": {
						"encoding": "inplace",
						"label": "bool",
						"numberOfBytes": "1"
					},
					"t_mapping(t_address,t_bool)": {
						"encoding": "mapping",
						"key": "t_address",
						"label": "mapping(address => bool)",
						"numberOfBytes": "32",
						"value": "t_bool"
					},
					"t_mapping(t_address,t_uint256)": {
						"encoding": "mapping",
						"key": "t_address",
						"label": "mapping(address => uint256)",
						"numberOfBytes": "32",
						"value": "t_uint256"
					},
					"t_uint256": {
						"encoding": "inplace",
						"label": "uint256",
						"numberOfBytes": "32"
					}
				}
			},
			"userdoc": {
				"kind": "user",
				"methods": {},
				"version": 1
			}
		}
	}
}